:020000040800F2
:1000000058140020450100084D0100084F01000868
:1000100051010008530100085501000800000000CC
:100020000000000000000000000000005701000870
:1000300059010008000000005B01000819190008C0
:100040005F0100085F0100085F0100085F01000810
:100050005F0100085F0100085F0100085F01000800
:100060005F0100085F0100085F0100085F010008F0
:100070001D0300086D0300085F0100085F01000810
:100080005F0100085F0100085F0100085F010008D0
:100090005F0100085F0100085F0100085F010008C0
:1000A0005F0100085F0100085F0100085F010008B0
:1000B0005F010008DD1900085F0100085F0100080A
:1000C0005F0100085F0100085F0100085F01000890
:1000D0005F010008E11F00085F010008E51F00083C
:1000E0005F0100085F0100085F0100085F01000870
:1000F0005F0100085F0100085F0100085F01000860
:100100005F0100085F0100085F0100085F0100084F
:10011000C11D0008991E00085F0100085F0100086A
:100120005F0100085F01000899030008BD03000893
:10013000DFF80CD000F06EF800480047992B00085B
:10014000581400200648804706480047FEE7FEE7AF
:10015000FEE7FEE7FEE7FEE7FEE7FEE7FEE7FEE777
:100160007D1900083101000840EA01039B0703D014
:1001700009E008C9121F08C0042AFAD203E011F8E6
:10018000013B00F8013B521EF9D27047D2B201E0A8
:1001900000F8012B491EFBD270470022F6E710B58C
:1001A00013460A4604461946FFF7F0FF204610BDE5
:1001B0002DE9F05F0546002092469B46884606469C
:1001C000814640241BE0284641464746224600F02F
:1001D00042F853465A46C01A914110D31146184668
:1001E000224600F029F82D1A67EB01084F462246F7
:1001F0000120002100F020F817EB00094E41201EDD
:10020000A4F10104DFDC484631462A464346BDE8F6
:10021000F09F0000064C074D06E0E06840F0010347
:1002200094E8070098471034AC42F6D3FFF784FFF8
:10023000D02F0008F02F0008202A04DB203A00FA13
:1002400002F1002070479140C2F1200320FA03F32D
:10025000194390407047202A04DB203A21FA02F02B
:100260000021704721FA02F3D040C2F120029140F0
:10027000084319467047014648780A7840EA022048
:100280007047000070B502460C46FF25FF2309E0C9
:1002900012F8010B80EA05010648405C80EA03057C
:1002A0000548435C201EA4F10106B4B2F0D143EA34
:1002B000052070BDD02D0008D02E000808B52520DF
:1002C0008DF8000000208DF8020001208DF8030059
:1002D000684601F0D1F827208DF8000001208DF844
:1002E00002008DF80300684601F0C6F834208DF84E
:1002F000000000208DF8020001208DF80300684600
:1003000001F0BAF835208DF8000001208DF80200C8
:100310008DF80300684601F0AFF808BD10B5202045
:1003200000F08EF8012805D103A001F0B5FF2020D0
:1003300000F068F810BD0000646D61312063683220
:100340002073656E64206F6B0000000008B50C2000
:100350008DF8000000208DF801008DF802000120CA
:100360008DF80300684601F087F808BD10B54FF41A
:10037000007000F065F8012802D102A001F08CFFA6
:1003800010BD0000646D61312063683320726563C5
:1003900076206F6B0000000010B5044800F050F8A4
:1003A000012802D102A001F077FF10BD0002001069
:1003B000646D612072656376206F6B0010B506482E
:1003C00000F03EF8012805D1034800F01BF803A017
:1003D00001F062FF10BD000000000210646D61209A
:1003E0006F6B000008B53B208DF8000000208DF8F1
:1003F00001008DF8020001208DF80300684601F02D
:100400003BF808BD00F0805111B10349086001E0DC
:1004100002494860704700000404024000000240A6
:1004200021B1026842F00102026004E002684FF666
:10043000FE731A40026070470146486880B27047F8
:1004400001460020002201F0805313B1054B1A68C9
:1004500001E0054B1A6802EA01030BB1012000E03C
:100460000020704700040240000002401AB10368F7
:100470000B43036002E003688B430360704710B5D1
:100480000022026847F6F0739A430C6A8B68234394
:100490000C6923434C6923438C692343CC69234370
:1004A0004C6A23438C6A23431A430260CB6843603F
:1004B0000B6883604B68C36010BD2DE9F0410246B4
:1004C00000250026002000230024002791F803C007
:1004D0000CF00F0591F803C00CF0100CBCF1000FEC
:1004E00003D091F802C04CEA050591F800C0BCF1B8
:1004F000000F31D0146800202BE04FF0010C0CFAF3
:1005000000F3B1F800C00CEA03069E4220D183003C
:100510004FF00F0C0CFA03F7BC4305FA03FC4CEA4E
:10052000040491F803C0BCF1280F06D14FF0010C70
:100530000CFA00FCC2F814C00AE091F803C0BCF148
:10054000480F05D14FF0010C0CFA00FCC2F810C0A6
:10055000401C0828D1D31460B1F800C0BCF1FF0FD3
:1005600034DD546800202EE000F1080C4FF0010843
:1005700008FA0CF3B1F800C00CEA03069E4221D140
:1005800083004FF00F0C0CFA03F7BC4305FA03FC91
:100590004CEA040491F803C0BCF1280F05D100F126
:1005A000080C08FA0CF8C2F8148091F803C0BCF1EA
:1005B000480F07D100F1080C4FF0010808FA0CF8B9
:1005C000C2F81080401C0828CED35460BDE8F081EA
:1005D00000B585B00121052000F0A6FF01218803A8
:1005E00000F0A2FF4FF40070ADF8100018208DF855
:1005F000130003208DF8120004A98348FFF75DFF64
:100600004FF48060ADF8100004208DF8130004A9A9
:100610007D48FFF752FF4FF4E13000900020ADF825
:100620000400ADF80600ADF80800ADF80C000C2091
:10063000ADF80A006946754801F090FD012240F2CC
:100640002551724801F064FD0121704801F014FD4C
:1006500040216E4801F0F8FC0121092000F064FF00
:100660000121880400F050FF4FF48060ADF81000C5
:1006700018208DF8130003208DF8120004A9644897
:10068000FFF71BFF4FF40060ADF8100004208DF859
:10069000130004A95E48FFF710FF04A95C48FFF7A8
:1006A0000CFF4FF4165000900020ADF80400ADF898
:1006B0000600ADF80800ADF80C000C20ADF80A00FB
:1006C0006946544801F04AFD01224021514801F099
:1006D000DFFC012240F224414E4801F019FD0121C6
:1006E0004C4801F0C9FC40214A4801F0ADFC012111
:1006F000112000F019FF0121C80400F005FF4FF49C
:100700008060ADF8100018208DF8130003208DF8DC
:10071000120004A94048FFF7D0FE4FF40060ADF886
:10072000100004208DF8130004A93B48FFF7C5FE14
:100730004FF4165000900020ADF80400ADF806000C
:10074000ADF80800ADF80C000C20ADF80A006946C1
:10075000324801F003FD01224021304801F098FCAD
:10076000012240F224412D4801F0D2FC01212B4806
:1007700001F082FC4021294801F066FC0121312072
:1007800000F0D2FE0121080500F0BEFE4FF48050BB
:10079000ADF8100018208DF8130003208DF812001A
:1007A00004A91D48FFF789FE0420ADF810008DF85C
:1007B000130001208DF8120004A91948FFF77DFEEF
:1007C0004FF4165000900020ADF80400ADF806007C
:1007D000ADF80800ADF80C000C20ADF80A00694631
:1007E000104801F0BBFC012240F225510D4801F0F8
:1007F0008FFC01210B4801F03FFC4021094801F02A
:1008000023FC05B000BD0000000801400038014095
:10081000000C01400048004000100140004C004026
:10082000001401400050004010B5154840780428DD
:1008300017D006DC01280BD002280CD003281CD1CD
:100840000CE0052810D0062811D0102815D111E091
:1008500000F07AF811E000F08FF80EE000F0BAF83E
:100860000BE000F0D9F808E000F0F4F805E000F043
:1008700001F902E000F00EF900BF00BF10BD00005A
:10088000080C002010B51048007800B910BD0020F9
:100890000D4908700D4890F8FF00042800DA0DE0BB
:1008A0000A4890F8FF10FFF7EDFC044604B105E09C
:1008B00007A001F0F1FCFFF7B7FF00BF00200349DC
:1008C00081F8FF0000BFE1E758000020080C00207D
:1008D000637263206F6B00002DE9F04106460F46FE
:1008E0009046002521E042463946304600F0E2F8C5
:1008F00001F040FF04460EE0FFF7C4FF204601F080
:1009000023FFB0F5FA7F00D906E00E4890F8900179
:10091000002800DD00E0EFE700BF0A4890F89001F2
:10092000002800DD03E0681CC5B2012DDBDB00BF41
:10093000044890F8900110B90020BDE8F081012032
:10094000FBE70000080C00200A4A92F8FF20072A63
:100950000EDB084A9078002101E04A1CD1B200EB7E
:10096000D073B1EB630FF8DB0122024B83F88D21CA
:1009700070470000080C002070B5144890F8FF0084
:10098000002822DD11488578B0F88601A0F2012008
:10099000D0B9062D17D10D4CE41C2046FFF76BFC97
:1009A0000B498880A41C2046FFF765FC0849C880D5
:1009B000A41C2046FFF75FFC05490881A41C012008
:1009C000024981F88E0100BF00BF70BD080C0020F5
:1009D0009C0D002070B50E4890F8FF00072816DB2C
:1009E0000B488578002409E03046FFF744FC01B24B
:1009F000084820F81410B61C601CC4B205EBD57171
:100A0000B4EB610FF0DB0120014981F88F0170BD6B
:100A1000080C0020A80D002070B509A001F03CFCD6
:100A20000B4890F8FF00002808DD09488478642C02
:100A300004DCC51C0120E91E81F8900170BD000096
:100A40000A4D4F44485F526561645F30344800008E
:100A5000080C0020064890F8FF00002806DD044836
:100A60000078012802D1024981F891017047000005
:100A7000080C0020064890F8FF00002806DD044816
:100A80000078012802D1024981F8920170470000E4
:100A9000080C0020064890F8FF00002806DD0448F6
:100AA0000078012802D1024981F8930170470000C3
:100AB000080C002070B506460C46154600202B4950
:100AC00081F88301084690F8831190F88301401C57
:100AD000264A82F8830102F203104654042110468C
:100AE00090F8832190F88301401C204B83F8830108
:100AF00003F2031081542112184690F8832190F8D4
:100B00008301401C83F8830103F2031081541846CB
:100B100090F8832190F88301401C83F8830103F24D
:100B2000031084542912184690F8832190F8830109
:100B3000401C83F8830103F203108154184690F897
:100B4000832190F88301401C83F8830103F2031092
:100B5000855400F00DF80020044981F8900181F8D7
:100B60008C510846A0F88A4170BD0000080C002096
:100B700070B51A4890F8831100F20310FFF782FB5A
:100B800005462912154890F8832190F88301401CEE
:100B9000124B83F8830103F203108154184690F836
:100BA000832190F88301401C83F8830103F2031032
:100BB0008554002406E00A48015D0AA001F06CFBA0
:100BC000601C84B2054890F88301A042F3DC03481E
:100BD00090F88311024800F009F870BD080C00205D
:100BE0000B0D0020253032582000000070B504465F
:100BF0000D462946204600F0D5FD70BDFEB500200B
:100C0000424981F88300084690F88000082803D004
:100C1000032081F88300FEBD3C48801CFFF72BFBBE
:100C200007463A48001DFFF726FB0546E81DC11799
:100C300000EB5171CE10B7F5807F15DD002D13DD6F
:100C40007819B0F5837F0FDA002404E000200DF856
:100C50000400601C84B2B442F8DB002401E0601C94
:100C600084B2AC42FBDB03E00220284981F8830018
:100C7000264890F88300002841D1244981F80401D6
:100C80000846017890F8042190F80401401C1F4B9D
:100C900083F8040103F1840081548438417890F88A
:100CA000042190F80401401C83F8040103F184003E
:100CB0008154843890F8042190F80401401C83F892
:100CC000040103F18400865400240FE01DF8041091
:100CD0000E4890F8042190F80401401C0B4B83F857
:100CE000040103F184008154601C84B2B442EDDB42
:100CF000064890F80411843000F096FB04E00349A4
:100D000091F8830000F060FB00BF84E7780E0020BC
:100D1000FEB50020424981F88300084690F8800023
:100D2000082803D0032081F88300FEBD3C48801CC6
:100D3000FFF7A1FA07463A48001DFFF79CFA05465F
:100D4000E81DC11700EB5171CE10B7F5007F15DD1E
:100D5000002D13DD7819B0F5017F0FDC002404E0CD
:100D600000200DF80400601C84B2B442F8DB0024BB
:100D700001E0601C84B2AC42FBDB03E002202849A6
:100D800081F88300264890F88300002841D1244947
:100D900081F804010846017890F8042190F80401D4
:100DA000401C1F4B83F8040103F1840081548438F4
:100DB000417890F8042190F80401401C83F8040164
:100DC00003F184008154843890F8042190F80401E0
:100DD000401C83F8040103F18400865400240FE0D2
:100DE0001DF804100E4890F8042190F80401401CEE
:100DF0000B4B83F8040103F184008154601C84B21E
:100E0000B442EDDB064890F80411843000F00CFB8E
:100E100004E0034991F8830000F0D6FA00BF84E7AC
:100E2000780E002070B590B04DA001F035FA00208A
:100E30004E4981F88300084690F88000082803D0C6
:100E4000032081F8830027E04848801CFFF713FA4D
:100E500006464648001DFFF70EFA0546202D04D928
:100E60000320424981F8830016E0002410E0684620
:100E7000022202FB0401304600F05EFA20B9022093
:100E80003A4981F8830005E0701C86B2601C84B288
:100E9000AC42ECDB00BF00BF344890F88300002870
:100EA00056D133A001F0F8F90020304981F804014F
:100EB0000846017890F8042190F80401401C2B4B5F
:100EC00083F8040103F1840081548438417890F858
:100ED000042190F80401401C83F8040103F184000C
:100EE00081546806010E184690F8042190F8040118
:100EF000401C83F8040103F18400815400241EE0A7
:100F00001DF81410194890F8042190F80401401CB1
:100F1000164B83F8040103F1840081546000401CE7
:100F20001DF80010184690F8042190F80401401CA8
:100F300083F8040103F184008154601C84B2AC4244
:100F4000DEDB0A4890F80411843000F06DFA04E00A
:100F5000064991F8830000F037FA10B070BD000028
:100F60000D0A4D4F4453203033000000780E00200E
:100F70000D0A4D4F4453203033204F4B00000000EA
:100F800070B586B00A2101A8FFF707F900204F4984
:100F900081F88300084690F88000082803D00320D9
:100FA00081F8830031E04948801CFFF764F9064668
:100FB0004648001DFFF75FF90546B6F5806F1FDD57
:100FC000002D1DDD701940F20241884218DC00241A
:100FD00013E0A6F2014030B93D48B0F8CC0001A9B9
:100FE00021F8140004E0002001A921F8140000BF3A
:100FF00000BF701C86B2601C84B2AC42E9DB03E027
:101000000220324981F8830000BF304890F8830005
:10101000002853D12D4981F804010846017890F841
:10102000042190F80401401C284B83F8040103F1CB
:10103000840081548438417890F8042190F80401A8
:10104000401C83F8040103F1840081546806010EFA
:10105000184690F8042190F80401401C83F804011C
:1010600003F18400815400241FE001A830F814002B
:101070000112164890F8042190F80401401C134B0B
:1010800083F8040103F18400815401A810F81410BE
:10109000184690F8042190F80401401C83F80401DC
:1010A00003F184008154601C84B2AC42DDDB07484C
:1010B00090F80411843000F0B7F904E0034991F886
:1010C000830000F081F906B070BD0000780E0020AA
:1010D0007E0F002070B50020234981F88300084668
:1010E00090F88000082803D0032081F883002DE0C9
:1010F0001D48801CFFF7BFF805461B48001DFFF781
:10110000BAF8044634B1012C04D00320164981F802
:1011100083001BE040F20110854203D11348A0F880
:10112000CE4012E0B5F5817F03D11048A0F8D04041
:101130000BE040F20310854203D10C48A0F8D240E6
:1011400003E00220084981F8830000BF064890F8B8
:10115000830010B900F04EF904E0034991F88300D0
:1011600000F032F970BD0000780E00207E0F0020E4
:1011700070B50020164981F88300084690F8800079
:10118000082803D0032081F8830014E01048801C55
:10119000FFF771F805460E48001DFFF76CF804468E
:1011A0002146284600F060F9012803D002200849B2
:1011B00081F8830000BF064890F8830010B900F062
:1011C00019F904E0024991F8830000F0FDF870BDC0
:1011D000780E00202DE9F0410020204981F883009D
:1011E000084690F880000B2803DA032081F883007A
:1011F00026E01A48801CFFF73EF806461748001DF7
:10120000FFF739F8054615488779002414E0610096
:10121000C91D124A8818FFF72EF88046311988B286
:10122000414600F021F9012804D002200B4981F841
:10123000830003E0601CC4B2AC42E8DB00BF00BF27
:10124000064890F8830010B900F0D4F804E0034990
:1012500091F8830000F0B8F8BDE8F081780E002026
:1012600010B519484078042817D006DC01280BD0A7
:1012700002280CD003281CD10CE0052810D0062829
:1012800011D0102815D111E0FFF7B8FC1AE0FFF7D4
:101290003FFD17E0FFF7C6FD14E0FFF771FE11E018
:1012A000FFF718FF0EE0FFF763FF0BE0FFF792FF79
:1012B00008E00120044981F8830091F8830000F0E0
:1012C00083F800BF00BF10BD780E002070B5134832
:1012D000007800B970BD002010490870104890F8DF
:1012E0008000042800DA12E00D4890F88010FEF724
:1012F000C9FF04461CB10BA000F0CEFF07E0084870
:101300000578012D00D002E0FFF7AAFF00BF002002
:10131000034981F8800000BFDCE70000590000208D
:10132000780E00200D0A63726320636865636B208A
:101330006661696C656400000246044830F812304A
:10134000181208704B70012070470000820F0020B7
:1013500070B5044621460FA000F09EFF00200F4903
:10136000087040F6A6650E4A2946012001F01EFAD3
:101370000C4890F8800080280ADA0A4890F880101B
:1013800090F88000401C074A82F8800010464454C0
:1013900070BD0000253032582000000059000020A8
:1013A000A9130008780E002010B50120024908702A
:1013B00002A000F071FF10BD590000200A74696D91
:1013C000656F75740000000038B504460848007861
:1013D0008DF800000648407840F080008DF801004C
:1013E0008DF802400321684600F01EF838BD000069
:1013F000780E00201CB5002405E00648005D0DF8BD
:101400000400601CC4B2062CF7DB0621684600F01D
:101410000BF81CBD780E002070B504460D46294619
:10142000204600F0F5F970BD70B5A0B005460C4639
:10143000224629466846FEF797FE21462846FEF7D3
:1014400021FF064632122046611CCCB20DF8002066
:10145000F2B22046611CCCB20DF80020214668464D
:10146000FFF7DAFF20B070BD0246024820F81210E4
:1014700001207047820F002070B5002100230F2249
:10148000C47804B3154C246804F4E064C4F5E06443
:10149000210AC1F10403CA40447804FA03F18478B4
:1014A0001440214309010E4C0678A155047804F03C
:1014B0001F050124AC4005786D11AD0005F1E02554
:1014C000C5F8004109E0047804F01F050124AC4090
:1014D000044D0678761145F8264070BD0CED00E00D
:1014E00000E400E080E100E029B1064A52690243CD
:1014F000044B5A6104E0034A52698243014B5A612A
:10150000704700000010024029B1064AD269024328
:10151000044BDA6104E0034AD2698243014BDA6189
:10152000704700000010024029B1064A9269024348
:10153000044B9A6104E0034A92698243014B9A6129
:10154000704700000010024030B500210022002446
:1015500000232D4D6D6805F00C0121B1042905D043
:10156000082923D105E0294D056022E0274D0560BB
:101570001FE0254D6D6805F47012234D6D6805F46C
:101580008034022505EB92421CB9214D554305607C
:101590000BE01D4D6D6805F400351DB11C4D554324
:1015A000056002E0194D5543056002E0174D0560E6
:1015B00000BF00BF144D6D6805F0F0010909154D1D
:1015C0006B5C0568DD4045600F4D6D6805F4E061BA
:1015D000090A104D6B5C4568DD4085600A4D6D68F9
:1015E00005F46051C90A0B4D6B5C4568DD40C56070
:1015F000054D6D6805F44041890B074D6B5CC5686E
:10160000B5FBF3F5056130BD0010024000127A0011
:1016100000093D005A0000206A00002008B50121A1
:101620000420FFF781FF18208DF8030003208DF8B8
:1016300002000120ADF8000069460948FEF73DFFB1
:101640000220ADF8000069460548FEF736FF042089
:10165000ADF8000069460248FEF72FFF08BD000004
:101660000008014000EB40010C4A32F811104FF025
:101670008042918600EB4001084A02EB4101498813
:101680004FF08042118700EB4001044A02EB410118
:1016900089884FF080429187704700001C0000202D
:1016A00010B5FFF7BBFF00F008F84FF4FA70010720
:1016B000888640000887888710BDF0B587B04FF452
:1016C0007A7425462646274601210846FFF71CFF67
:1016D000601EADF814004720ADF810000020ADF8F2
:1016E0001600ADF8120004A9E00600F017FB602018
:1016F000ADF800000120ADF80200ADF80640002072
:10170000ADF808006946E00600F0F0F90821C806C7
:1017100000F038FA0120ADF80200ADF80650694635
:10172000800700F039FA0821C80600F087FA012086
:10173000ADF80200ADF806606946800700F08CFA4B
:101740000821C80600F0D8FA0121880700F096F9B0
:101750000121880700F0A1F907B0F0BD08B501210B
:101760001020FFF7E1FE03208DF8020010208DF815
:1017700003000001ADF8000069460348FEF79DFE36
:1017800000F01AF808BD00000010014010B502205A
:10179000FFF768FF4FF480700149086110BD000039
:1017A0000010014070B504460D46FFF7EFFF2946D3
:1017B000204601F085FA70BD10B54FF480700349E2
:1017C00048610120FFF74EFF10BD000000100140EE
:1017D00008B501211020FFF7A7FE03208DF80200B5
:1017E00010208DF803004001ADF800006946034861
:1017F000FEF763FE00F014F808BD00000010014081
:101800004FF400700149086170470000001001406A
:1018100070B504460D462946204601F07DFA70BD9C
:101820004FF400700149486170470000001001400A
:1018300010B500F001F810BD0CB50020019000902B
:101840003348006840F480303149086000BF3048B8
:10185000006800F4003000900198401C019000984E
:1018600018B90198B0F5A06FF1D12948006800F4CB
:10187000003010B10120009001E00020009000989D
:10188000012843D12348006840F010002149086036
:101890000846006820F0030008600846006840F031
:1018A000020008601A4840681949486008464068C4
:1018B00048600846406840F48060486008464068D8
:1018C00020F47C1048600846406840F4E810486006
:1018D0000846006840F08070086000BF0C4800684F
:1018E00000F000700028F9D00948406820F003009B
:1018F000074948600846406840F00200486000BF61
:101900000348406800F00C000828F9D10CBD000025
:10191000001002400020024010B500F001F810BD98
:1019200010B51248006840B110480068401E0F49C9
:10193000086010B901200E490870002408E004EB8B
:1019400044010C4A02EB810000F022FF601CC4B28B
:10195000042CF4DB08480068401C0749086008466E
:101960000068401C08B90020086010BD0400002079
:1019700008000020D80B00200000002010B51348FC
:10198000006840F0010011490860084640681049AD
:1019900008400E494860084600680E4908400B4957
:1019A00008600846006820F4802008600846406807
:1019B00020F4FE0048604FF41F008860FFF738FFF6
:1019C0004FF000600449086010BD000000100240A4
:1019D0000000FFF8FFFFF6FE08ED00E010B5022161
:1019E000214800F069F858B102211F4800F052F870
:1019F000002202211C4800F070F81C480068804753
:101A00000421194800F058F858B10421164800F094
:101A100041F800220421144800F05FF814480068DF
:101A200080470821104800F047F858B108210E48B7
:101A300000F030F8002208210B4800F04EF80D4865
:101A4000006880471021084800F036F858B110218E
:101A5000054800F01FF800221021034800F03DF86F
:101A600005480068804710BD000400400C000020BD
:101A700010000020140000201800002021B102886E
:101A800042F08002028004E002884FF67F731A4021
:101A900002807047CA430282704721B1028842F037
:101AA0000102028004E002884FF6FE731A400280B1
:101AB00070470146888C704730B5024600200023ED
:101AC0000024158A05EA0103958905EA010413B18A
:101AD0000CB1012000E0002030BD1AB183890B4316
:101AE000838102E083898B438381704770B5002432
:101AF00000220023058C4FF6FE7635400584028CCB
:101B00008388048B4FF68F752C40B51E2C400D88B2
:101B10002C43751E2A400D892A434D882A43144DB3
:101B2000A8420BD0134DA84208D0134DA84205D0AF
:101B3000124DA84202D0124DA84213D14FF6F775AC
:101B40002A404D892A434FF6FB752A408D882A4347
:101B50004FF6FF652B404FF6FF552B408D892B43E9
:101B6000CD892B4383800483CD888586028470BD14
:101B7000002C01400034014000400140004401407D
:101B8000004801400A460021018B4FF6F7731940C7
:101B9000114301837047000070B500240022002328
:101BA000058C4FF6EF7635400584028C8388048BD4
:101BB00048F6FF752C404FF6FF452C400D884FF638
:101BC000FF7606EA05252C434FF6DF752A400D897E
:101BD00006EA05152A434D8806EA05152A43154DE0
:101BE000A84202D0144DA8421DD14FF67F752A405D
:101BF0004D894FF6FF7606EA05152A434FF6BF7565
:101C00002A408D8806EA05152A434FF6FF352B40FA
:101C10004FF2FF752B408D8906EA85052B43CD8950
:101C200006EA85052B4383800483CD8805870284DB
:101C300070BD0000002C0140003401400A46002124
:101C4000018B4FF2FF7319404FF6FF7303EA022333
:101C5000194301837047000070B50024002200235F
:101C6000058C4FF6FF6635400584028C8388848B93
:101C70004FF68F752C404FF6FC752C400D882C4389
:101C80004FF6FF552A400D894FF6FF7606EA0525E7
:101C90002A434D8806EA05252A43154DA84202D05D
:101CA000144DA8421DD14FF2FF752A404D894FF6C1
:101CB000FF7606EA05252A434FF6FF352A408D8830
:101CC00006EA05252A434EF6FF752B404DF6FF75B3
:101CD0002B408D8906EA05152B43CD8906EA0515AB
:101CE0002B4383808483CD888587028470BD000068
:101CF000002C0140003401400A460021818B4FF640
:101D0000F7731940114381837047818670470187BB
:101D1000704781877047A0F8401070470022028802
:101D20001D4B98420ED01D4B98420BD0B0F1804F06
:101D300008D01B4B984205D01A4B984202D01A4B40
:101D4000984204D14FF68F731A404B881A43174BB1
:101D5000984207D0164B984204D04FF6FF431A40E2
:101D6000CB881A4302808B8883850B8803850A4BB6
:101D700098420BD0094B984208D00E4B984205D0A0
:101D80000D4B984202D00D4B984201D10B7A03863D
:101D90000123838270470000002C01400034014081
:101DA0000004004000080040000C0040001000400B
:101DB0000014004000400140004401400048014040
:101DC00010B540F22441254800F078F900282ED0C3
:101DD0002348FEF731FB0446214622A000F05CFABE
:101DE0000120234908701D4800F024FA21A000F0CA
:101DF00053FA0320FFF736FC002407E01F48025D7A
:101E000021461FA000F048FA601CC4B21448FEF737
:101E100013FBC0F57A70A042F0DC1148FEF70CFB12
:101E2000C0F57A70194981F8FF0000F033FF40F2E5
:101E300026610A4800F042F978B140F2266107486D
:101E400000F00BF9002240F22661044800F060F92E
:101E50000FA000F021FAFFF7AFFC10BD004C0040CE
:101E6000300402407265637620636E743A25640024
:101E70005800002069646C6500000000B008002074
:101E800025643A253032582000000000080C00205C
:101E900073656E64206F6B0010B540F225514B489E
:101EA00000F00CF938B34A49086800F0C3F9C4B22D
:101EB000474880684649C98A44544548C08A401CFE
:101EC00080B24349C882C989884202DB0020404968
:101ED000C8823F48408B3E49C989884204DA3C4861
:101EE000408B401C3A4948833948406A18B1384809
:101EF000416A204688473649086840F2277100F059
:101F0000DDF878B33248808A70B931490022086818
:101F100040F2277100F0FCF82D490122086840F2D8
:101F2000266100F0F5F850E02AA000F0B5F9284A43
:101F30005268274B5B8AD15C254A106800F07FF914
:101F40002348408A401C80B22149488289898842BE
:101F500002DB00201E4948821D48808A401E1C4921
:101F6000888232E0FFE71A49086840F2266100F0F3
:101F7000A5F850B31648808A68B915490022086848
:101F800040F2266100F0C4F81148006AE8B1104937
:101F9000086A804719E00E4A52680D4B5B8AD15C93
:101FA0000B4A106800F04BF90948408A401C80B287
:101FB000074948828989884202DB00200449488217
:101FC0000348808A401E0249888210BD00500040AC
:101FD000B009002075617274352073656E640A0063
:101FE0007047000010B540F22441124800F066F836
:101FF00068B11148FEF720FAC0F5806421460FA0B1
:1020000000F04AF90B4800F015F900F005FE40F227
:102010002661084800F052F850B140F226610548A8
:1020200000F01BF8002240F22661024800F070F830
:1020300010BD000000480040300002407265637629
:1020400020636E743A25640001F40072B2F5007FDB
:1020500000D100BFCA430280704710B500220023A0
:1020600040F66A14A14200D100BF0A120124944034
:10207000A3B2DC43048010BD21B1828942F4005236
:10208000828104E082894DF6FF731A408281704795
:102090001AB1838A0B43838202E0838A8B43838253
:1020A000704702460020B1F5007F00D100BF1388C1
:1020B0000B400BB1012000E00020704770B50246D4
:1020C000002400230025002040F66A16B14200D10A
:1020D00000BFC1F3421501F01F03012606FA03F306
:1020E000012D02D19689334006E0022D02D1168AD5
:1020F000334001E0968A33400C12012606FA04F4BC
:102100001688344013B10CB1012000E0002070BDEE
:10211000F0B50346002400260025002040F66A178B
:10212000B94200D100BF1846C1F3421401F01F06A6
:10213000012707FA06F5012C01D10C3004E0022C2E
:1021400001D1103000E014301AB107682F43076046
:1021500002E00768AF430760F0BD00002DE9F047DB
:1021600086B005460E460024A24600BFA1460027C1
:10217000B08900B100BF2F462C8A4CF6FF70044096
:10218000F08804432C82AC894EF6F3100440B088EA
:1021900031890843718908430443AC81AC8A4FF606
:1021A000FF400440B0890443AC8201A8FFF7CCF99A
:1021B0001F48874202D1DDF810A001E0DDF80CA035
:1021C000A88900F4004040B10AEBCA0000EB0A10F5
:1021D00031684900B0FBF1F807E00AEBCA0000EBF8
:1021E0000A1031688900B0FBF1F86420B8FBF0F008
:1021F00004012009642101FB1089A88900F4004032
:1022000040B1322000EBC900B0FBF1F000F0070054
:10221000044308E0322000EB09106421B0FBF1F028
:1022200000F00F0004432C8106B0BDE8F0870000E9
:102230000038014001468888C0F308007047C1F3A8
:1022400008028280704700000C480D4908600D4864
:1022500048600D4888604FF480708881C8810020F4
:1022600008824882C8820883488388820748C861F8
:102270000748086207484862704700000050004065
:10228000B0090020D8090020D80A00200118000851
:1022900021180008511300080FB4054B10B503A90D
:1022A000044A029800F01EF810BC5DF814FB000010
:1022B000752B00088400002002E008C8121F08C126
:1022C000002AFAD170477047002001E001C1121FB7
:1022D000002AFBD1704780F31088704780F3108884
:1022E000704700002DE9FF4F8DB00F4605460026D0
:1022F00006E025280BD0DDE90F1290476D1C761CF7
:1023000028780028F5D111B03046BDE8F08F0024C0
:10231000A246A1460122EC4900E0044315F8013F22
:10232000203B02FA03F00842F7D128782A2810D07F
:102330006FF02F022878A0F13001092914D80AEB98
:102340008A0102EB410144F0020400EB010A6D1C1A
:10235000F0E701CF5FEA000A03D544F40054CAF164
:10236000000A44F002046D1C28782E2817D115F8B5
:10237000010F44F004042A280ED06FF02F022878B1
:10238000A0F1300109290AD809EB890102EB4101CA
:1023900000EB01096D1CF2E757F8049B6D1C2878CF
:1023A0006C280FD006DC4C2817D068280DD06A287E
:1023B00014D104E0742810D07A280FD10DE044F431
:1023C00000140AE044F4801401E044F440146978F5
:1023D000814202D104F580146D1C6D1C2A786E2A8E
:1023E0001FD00CDC632A31D004DC002A8BD0582AA1
:1023F00011D1A3E0642A68D0692A0CD165E0732A60
:102400002ED004DC6F2A73D0702A04D19BE0752A89
:102410006FD0782A6ED01046DDE90F129047761CF7
:1024200050E1C4F30250022806D0032809D0042842
:1024300001CF09D0066045E101CFF117C0E9006185
:1024400040E101CF06803DE106703BE117F8040B47
:102450008DF8000000208DF80100EB46012003E01C
:1024600057F804BB4FF0FF3061074FF0000102D472
:102470000DE008F10101884649450FDA8045F8DB97
:102480001BF808100029F4D108E008F10101884682
:102490008142FADB1BF808100029F6D1DDE90F2391
:1024A000AAEB08008146214600F036F9304400EBE3
:1024B000080604E0DDE90F121BF8010B9047B8F1A4
:1024C0000108F7D221464846F7E00A21C4F3025337
:1024D0004FF0000B0891022B04D001CFC117032B42
:1024E00009D00AE0FF1D27F00707F7E8020108E01E
:1024F00032E01FE020E000B2C117042B01D140B24E
:10250000C117031E71F1000307DA4FF0000CD0EB86
:102510000C006CEB01012D2302E0230504D52B23D5
:102520008DF82430012303E0E30701D02023F7E7EF
:10253000984658E00A2110E010210EE010204FF0DC
:10254000000B08900CE010214FF0000B44F0040445
:102550004FF00809089103E008214FF0000B0891A3
:10256000C4F30253022B04D001CF0021032B06D069
:1025700006E0FF1D27F00707F7E8020103E080B23D
:10258000042B00D1C0B24FF0000823072BD5702ACE
:1025900007D0DDF820C08CF0100C5CEA0B0C05D0E5
:1025A0000EE040238DF82430012308E050EA0103B7
:1025B00006D030238DF824308DF82520022398464C
:1025C000DDF820C08CF0080C5CEA0B0C0BD150EA53
:1025D000010301D1630706D530238DF824304FF075
:1025E0000108A9F10109582A04D038A20B9208AABF
:1025F0000A920BE03AA2F9E75B46089AFDF7D8FD8C
:102600000B9B9B5C0A9A521E0A92137050EA0102BD
:10261000F2D10A98ADEB000000F1200B600702D563
:1026200024F4803401E04FF00109D94502DDA9EB23
:102630000B0000E0002000EB0B0141440890AAEBE6
:10264000010AE00306D4DDE90F232146504600F0DD
:1026500063F806444FF0000908E009A911F80900E1
:10266000DDE90F12904709F10109761CC145F4DB41
:10267000E0030CD5DDE90F232146504600F04CF86D
:10268000064404E0DDE90F1230209047761C0899DB
:10269000481E08900029F5DC08E00A980A9900789D
:1026A000491C0A91DDE90F129047761CBBF100012D
:1026B000ABF1010BF1DC21465046DDE90F2300F0C0
:1026C00019F806446D1C1BE609280100303132332D
:1026D000343536373839616263646566000000005E
:1026E0003031323334353637383941424344454648
:1026F000000000002DE9F041044600251E46174663
:10270000880404D405E039462020B0476D1C641EBF
:10271000F9D52846BDE8F0812DE9F04104460025B1
:102720001E469046C80301D5302700E020278804C4
:1027300004D505E041463846B0476D1C641EF9D506
:102740002846BDE8F081000070B504460120FFF77F
:10275000C5FD074806680020FFF7C0FDA64201D36B
:10276000351B02E0C4F1FF308519284670BD00001A
:102770000000002010B50120FFF7B0FD03480468F9
:102780000020FFF7ABFD204610BD00000000002038
:10279000416851B14168491E416031B90121417020
:1027A0000178012901D18168416070472DE9F0412C
:1027B00004460F461546052F00D37F1F2848FFF714
:1027C00078F9804608EB0706012C0FD125480560F3
:1027D000B1B22348FFF799FA02212148FFF75AF9CD
:1027E000012202211E48FFF778F937E0022C0FD1B1
:1027F0001D480560B1B21A48FFF789FA042118484C
:10280000FFF748F9012204211548FFF766F925E092
:10281000032C0FD115480560B1B21148FFF779FAC2
:1028200008210F48FFF736F9012208210C48FFF76D
:1028300054F913E0042C0FD10D480560B1B20848DB
:10284000FFF769FA10210648FFF724F90122102149
:102850000348FFF742F901E0BDE8F08100BFFBE764
:10286000000400400C000020100000201400002094
:102870001800002010B500F0B7F8FEF711FF00F0C7
:102880002FF800F05DF8FEF769FFFEF7A1FF1023B7
:102890004FF47A720C490D4800F0AEF800234FF463
:1028A00080620B49094800F0D9F810234FF47A727E
:1028B0000849094800F02AF900234FF47A720749C1
:1028C000054800F0F7F810BDB002002004480040B1
:1028D000B0030020B0070020044C0040080C00208A
:1028E00030B51448006842F21072B0FBF2F1481E95
:1028F000B0F1807F00D31BE0481E4FF0E022506112
:1029000050170F22002804DB13071C0E0A4B1C541F
:1029100006E013071D0E094B00F00F04241F1D5580
:1029200000BF00204FF0E02290610720106100BF3F
:1029300030BD00007000002000E400E018ED00E071
:102940002DE9FF41002416E0002004EB4401224A57
:1029500002EB8101486004EB440102EB81018860D5
:1029600004EB440102EB8101487004EB440102F8DE
:102970002100601CC4B2042CE6DB01210220FEF71A
:10298000C3FD1648006847081548B7FBF0F086B24B
:102990004FF6FF75ADF80850ADF804600020ADF8B3
:1029A0000A00ADF8060001A90E48FFF7B7F90121AA
:1029B0000C48FFF772F81D208DF8000004208DF8F8
:1029C000010000208DF8020001208DF80300684608
:1029D000FEF752FDBDE8FF81D80B002070000020FB
:1029E00040420F000004004010B5FFF72DFCFDF73A
:1029F000EFFDFDF763FC10BDF0B58BB007460C464C
:102A000015461E4601210846FEF76EFD009701940B
:102A100002960395002004908020059000200690E7
:102A2000079008904FF48050099000200A90694662
:102A30000948FDF724FD01210748FDF7F1FC0122BB
:102A400002210548FDF712FD1020FDF7DBFCFDF724
:102A50007DFC0BB0F0BD00001C000240F0B58BB057
:102A600007460C4615461E4601210846FEF73CFD6A
:102A70000097019402960395002004908020059011
:102A800000200690079008904FF480500990002095
:102A90000A9069460648FDF7F2FC01210448FDF75B
:102AA000BFFC4FF48070FDF7ADFC0BB0F0BD000033
:102AB00030000240F0B58BB007460C4615461E4666
:102AC00001210220FEF710FD009701940296039564
:102AD0000020049080200590002006900790202080
:102AE0000890C001099000200A9069460548FDF74A
:102AF000C6FC01210348FDF793FC0348FDF782FC67
:102B00000BB0F0BD3004024000010010F0B58BB0F6
:102B100007460C4615461E4601210220FEF7E4FC3E
:102B20000097019402960395002004908020059060
:102B300000200690079008904FF4805009900020E4
:102B40000A9069460948FDF79AFC01210748FDF7FC
:102B500067FC012202210548FDF788FC0448FDF7C7
:102B600051FCFDF73FFC0BB0F0BD000058040240E3
:102B70000000011070B504460D46E1B20548FFF7AC
:102B80005EFB00BF40210348FFF78BFA0028F9D015
:102B9000204670BD00380140FFF76CFE15A0FFF71E
:102BA0007BFB0020FEF75EFD012200211046FDF7B1
:102BB00093FE18B111A0FFF76FFB02E011A0FFF721
:102BC0006BFB042112A000F03DF812E0FEF77EFB43
:102BD000012200211046FDF77FFE18B107A0FFF784
:102BE0005BFB02E007A0FFF757FB042108A000F001
:102BF00029F8EBE7696E69740A000000686F737466
:102C0000206F6B00686F73742065727200000000A3
:102C100041540D0A0000000010B500210848FDF7DE
:102C2000FFFB4FF48070FDF7EDFB4FF4806004492B
:102C30003039486301210248FDF7F2FB10BD000066
:102C40003000024070B505460C462020FDF7DAFB47
:102C500040F226610D48FFF700FA00210C48FDF70D
:102C6000DFFB0B481C3885620462012240F22661BA
:102C70000648FFF74DFA01210548FDF7D1FB012277
:102C800080210248FFF704FA70BD000000480040B0
:102C90001C00024010B500210748FDF7C1FB0748A2
:102CA000FDF7B0FB4FF47A700349091D086001215C
:102CB0000148FDF7B5FB10BD3004024000010010D3
:102CC00070B505460C461148FDF79CFB40F22661A5
:102CD0000F48FFF7C2F900210E48FDF7A1FB0D4890
:102CE0000C3005600B48001D0460012240F2266193
:102CF0000748FFF70DFA01210648FDF791FB012275
:102D000080210348FFF7C4F970BD000000000210E5
:102D1000004C004058040240F8B506460F462948CA
:102D2000C06910B12749C8698047002432E010E02B
:102D30000120FFF7D0FA2348808A00900020FFF797
:102D4000CAFA20488089BDF80010884200DD01E001
:102D500000BFEDE700BF315D1A484068194A128A8A
:102D600081540120FFF7B7FA1648008A401C80B250
:102D7000144908828989884202DB002011490882AF
:102D80001048808A401C0F4988820020FFF7A3FA70
:102D9000601C84B2BC42CADB002507E009484068D9
:102DA000415D09A0FFF778FA681CC5B20548808A22
:102DB000A842F3DC03490122086840F22771FFF7BB
:102DC000A7F9F8BDB00900202530325820000000D6
:102DD00000C1814001C0804101C0804100C18140EB
:102DE00001C0804100C1814000C1814001C08041DB
:102DF00001C0804100C1814000C1814001C08041CB
:102E000000C1814001C0804101C0804100C18140BA
:102E100001C0804100C1814000C1814001C08041AA
:102E200000C1814001C0804101C0804100C181409A
:102E300000C1814001C0804101C0804100C181408A
:102E400001C0804100C1814000C1814001C080417A
:102E500001C0804100C1814000C1814001C080416A
:102E600000C1814001C0804101C0804100C181405A
:102E700000C1814001C0804101C0804100C181404A
:102E800001C0804100C1814000C1814001C080413A
:102E900000C1814001C0804101C0804100C181402A
:102EA00001C0804100C1814000C1814001C080411A
:102EB00001C0804100C1814000C1814001C080410A
:102EC00000C1814001C0804101C0804100C18140FA
:102ED00000C0C101C30302C2C60607C705C5C404BA
:102EE000CC0C0DCD0FCFCE0E0ACACB0BC90908C82A
:102EF000D81819D91BDBDA1A1EDEDF1FDD1D1CDC1A
:102F000014D4D515D71716D6D21213D311D1D01089
:102F1000F03031F133F3F23236F6F737F53534F479
:102F20003CFCFD3DFF3F3EFEFA3A3BFB39F9F838E9
:102F300028E8E929EB2B2AEAEE2E2FEF2DEDEC2CD9
:102F4000E42425E527E7E62622E2E323E12120E049
:102F5000A06061A163A3A26266A6A767A56564A439
:102F60006CACAD6DAF6F6EAEAA6A6BAB69A9A868A9
:102F700078B8B979BB7B7ABABE7E7FBF7DBDBC7C99
:102F8000B47475B577B7B67672B2B373B17170B009
:102F900050909151935352929656579755959454F9
:102FA0009C5C5D9D5F9F9E5E5A9A9B5B9959589869
:102FB000884849894B8B8A4A4E8E8F4F8D4D4C8C59
:102FC00044848545874746868242438341818040C9
:102FD000F02F00080000002088000000B822000840
:102FE0007830000888000020D0130000C8220008B4
:102FF00000000000000000000000000000000000D1
:103000000000000000000000000000000000E803D5
:10301000E803E8030000E803E803E8030000000019
:103020002602E8030000000000000000000000008D
:103030000000000000000000000000000000000090
:10304000000000000000000000000000000001027D
:10305000030401020304060708090204060800002D
:1030600000A24A0400000000000000000102030466
:0830700006070809000000003A
:0400000508000131BD
:00000001FF
