:020000040800F2
:10000000280D0020450100084D0100084F0100089F
:1000100051010008530100085501000800000000CC
:100020000000000000000000000000005701000870
:1000300059010008000000005B010008950D000850
:100040005F0100085F0100085F0100085F01000810
:100050005F0100085F0100085F0100085F01000800
:100060005F0100085F0100085F0100085F010008F0
:100070005F0100085F0100085F0100085F010008E0
:100080005F0100085F0100085F0100085F010008D0
:100090005F0100085F0100085F0100085F010008C0
:1000A0005F0100085F0100085F0100085F010008B0
:1000B0005F010008590E00085F0100085F01000899
:1000C0005F0100085F0100085F0100085F01000890
:1000D0005F010008291300085F0100085F010008A4
:1000E0005F0100085F0100085F0100085F01000870
:1000F0005F0100085F0100085F0100085F01000860
:100100005F0100085F0100085F0100085F0100084F
:1001100029120008011300085F0100085F010008B0
:100120005F0100085F010008B5020008D90200085D
:10013000DFF80CD000F04AF8004800476D1C0008BA
:10014000280D00200648804706480047FEE7FEE7E6
:10015000FEE7FEE7FEE7FEE7FEE7FEE7FEE7FEE777
:10016000F90D0008310100082DE9F05F0546002077
:1001700092469B4688460646814640241BE0284618
:1001800041464746224600F042F853465A46C01AB6
:10019000914110D311461846224600F029F82D1A35
:1001A00067EB01084F4622460120002100F020F8AD
:1001B00017EB00094E41201EA4F10104DFDC484684
:1001C00031462A464346BDE8F09F0000064C074DE5
:1001D00006E0E06840F0010394E807009847103417
:1001E000AC42F6D3FFF7A8FF241F0008441F000805
:1001F000202A04DB203A00FA02F1002070479140E7
:10020000C2F1200320FA03F3194390407047202ADB
:1002100004DB203A21FA02F00021704721FA02F3B0
:10022000D040C2F1200291400843194670470000B7
:1002300070B502460C46FF25FF2309E012F8010BBA
:1002400080EA05010648405C80EA03050548435CF6
:10025000201EA4F10106B4B2F0D143EA052070BD1E
:10026000241D0008241E000808B525208DF8000074
:1002700000208DF8020001208DF80300684600F090
:1002800069FB34208DF8000000208DF80200012069
:100290008DF80300684600F05DFB35208DF8000006
:1002A00001208DF802008DF80300684600F052FB33
:1002B00008BD000010B5044800F048F8012802D13C
:1002C00002A001F031F910BD00020010646D612040
:1002D00072656376206F6B0010B5044800F036F845
:1002E000012802D1014800F013F810BD00000210EF
:1002F00008B53B208DF8000000208DF801008DF836
:10030000020001208DF80300684600F023FB08BDC1
:1003100000F0805111B10349086001E002494860D2
:1003200070470000040402400000024021B102684E
:1003300042F00102026004E002684FF6FE731A40C8
:10034000026070470146486880B27047014600204D
:10035000002201F0805313B1054B1A6801E0054BF0
:100360001A6802EA01030BB1012000E00020704787
:1003700000040240000002401AB103680B4303600E
:1003800002E003688B430360704710B500220268E7
:1003900047F6F0739A430C6A8B6823430C69234336
:1003A0004C6923438C692343CC6923434C6A234320
:1003B0008C6A23431A430260CB6843600B688360F6
:1003C0004B68C36010BD2DE9F041024600250026B0
:1003D000002000230024002791F803C00CF00F0533
:1003E00091F803C00CF0100CBCF1000F03D091F891
:1003F00002C04CEA050591F800C0BCF1000F31D0F5
:10040000146800202BE04FF0010C0CFA00F3B1F857
:1004100000C00CEA03069E4220D183004FF00F0C6F
:100420000CFA03F7BC4305FA03FC4CEA040491F808
:1004300003C0BCF1280F06D14FF0010C0CFA00FCF0
:10044000C2F814C00AE091F803C0BCF1480F05D10E
:100450004FF0010C0CFA00FCC2F810C0401C082838
:10046000D1D31460B1F800C0BCF1FF0F34DD546883
:1004700000202EE000F1080C4FF0010808FA0CF300
:10048000B1F800C00CEA03069E4221D183004FF070
:100490000F0C0CFA03F7BC4305FA03FC4CEA040406
:1004A00091F803C0BCF1280F05D100F1080C08FA3F
:1004B0000CF8C2F8148091F803C0BCF1480F07D1C2
:1004C00000F1080C4FF0010808FA0CF8C2F810808F
:1004D000401C0828CED35460BDE8F08100B585B03B
:1004E0000121052000F08EFA0121880300F08AFA2C
:1004F0004FF40070ADF8100018208DF813000320A1
:100500008DF8120004A95D48FFF75DFF4FF480608D
:10051000ADF8100004208DF8130004A95748FFF728
:1005200052FF4FF4E13000900020ADF80400ADF828
:100530000600ADF80800ADF80C000C20ADF80A007C
:1005400069464F4800F07AFF012240F225514C489D
:1005500000F04FFF01214A4800F0FFFE40214848CB
:1005600000F0E3FE0121112000F04CFA0121C80443
:1005700000F038FA4FF48060ADF8100018208DF8C4
:10058000130003208DF8120004A93E48FFF71BFF5B
:100590004FF40060ADF8100004208DF8130004A99A
:1005A0003848FFF710FF4FF4165000900020ADF8C8
:1005B0000400ADF80600ADF80800ADF80C000C2002
:1005C000ADF80A006946304800F038FF01224021AA
:1005D0002D4800F0CEFE012240F224412A4800F0CE
:1005E00008FF0121284800F0B8FE4021264800F00D
:1005F0009CFE0121312000F005FA0121080500F0E0
:10060000F1F94FF48050ADF8100018208DF8130068
:1006100003208DF8120004A91A48FFF7D4FE042025
:10062000ADF810008DF8130001208DF8120004A918
:100630001648FFF7C8FE4FF4165000900020ADF8A2
:100640000400ADF80600ADF80800ADF80C000C2071
:10065000ADF80A0069460E4800F0F0FE012240F2B3
:1006600025510B4800F0C5FE0121094800F075FE38
:100670004021074800F059FE05B000BD00080140C8
:100680000038014000100140004C004000140140BF
:100690000050004010B510484078042813D006DC04
:1006A00001280BD002280CD0032812D10AE005281B
:1006B0000CD006280BD010280BD109E000F070F800
:1006C00007E006E005E000F083F802E001E000E06A
:1006D00000BF00BF10BD0000B806002010B51048D4
:1006E000007800B910BD00200D4908700D4890F841
:1006F000FF00042800DA0DE00A4890F8FF10FFF729
:1007000097FD044604B105E007A000F00DFFFFF7D8
:10071000C1FF00BF0020034981F8FF0000BFE1E7EF
:1007200058000020B8060020637263206F6B000041
:100730002DE9F04106460F469046002521E042464D
:100740003946304600F062F801F058F904460EE0F0
:10075000FFF7C4FF204601F03BF9B0F5FA7F00D95E
:1007600006E00E4890F89001002800DD00E0EFE779
:1007700000BF0A4890F89001002800DD03E0681CE3
:10078000C5B2012DDBDB00BF044890F8900110B921
:100790000020BDE8F0810120FBE70000B806002042
:1007A0000A4A92F8FF20072A0EDB084A90780021B7
:1007B00001E04A1CD1B200EBD073B1EB630FF8DB60
:1007C0000122024B83F88D2170470000B8060020FB
:1007D00070B509A000F0A8FE0B4890F8FF000028B3
:1007E00008DD09488478642C04DCC51C0120E91E5E
:1007F00081F8900170BD00000A4D4F44485F52657A
:1008000061645F3034480000B806002070B50646C9
:100810000C46154600202B4981F88301084690F8C4
:10082000831190F88301401C264A82F8830102F26A
:10083000031046540421104690F8832190F8830158
:10084000401C204B83F8830103F2031081542112D2
:10085000184690F8832190F88301401C83F88301A7
:1008600003F203108154184690F8832190F8830115
:10087000401C83F8830103F20310845429121846A4
:1008800090F8832190F88301401C83F8830103F2E0
:1008900003108154184690F8832190F88301401C7E
:1008A00083F8830103F20310855400F00DF8002053
:1008B000044981F8900181F88C510846A0F88A41DA
:1008C00070BD0000B806002070B51A4890F883117A
:1008D00000F20310FFF7ACFC05462912154890F80A
:1008E000832190F88301401C124B83F8830103F2AB
:1008F00003108154184690F8832190F88301401C1E
:1009000083F8830103F203108554002406E00A48AB
:10091000015D0AA000F008FE601C84B2054890F852
:100920008301A042F3DC034890F88311024800F0F1
:1009300009F870BDB8060020BB07002025303258EA
:100940002000000070B504460D462946204600F000
:1009500097F970BD70B5002100230F22C47804B34D
:10096000154C246804F4E064C4F5E064210AC1F184
:100970000403CA40447804FA03F184781440214304
:1009800009010E4C0678A155047804F01F050124D6
:10099000AC4005786D11AD0005F1E025C5F80041CA
:1009A00009E0047804F01F050124AC40044D0678EA
:1009B000761145F8264070BD0CED00E000E400E043
:1009C00080E100E029B1064A52690243044B5A61B2
:1009D00004E0034A52698243014B5A6170470000A8
:1009E0000010024029B1064AD2690243044BDA6181
:1009F00004E0034AD2698243014BDA617047000088
:100A00000010024029B1064A92690243044B9A61E0
:100A100004E0034A92698243014B9A6170470000E7
:100A20000010024030B500210022002400232D4D8B
:100A30006D6805F00C0121B1042905D0082923D1E6
:100A400005E0294D056022E0274D05601FE0254D9A
:100A50006D6805F47012234D6D6805F4803402252D
:100A600005EB92421CB9214D554305600BE01D4D2D
:100A70006D6805F400351DB11C4D5543056002E05D
:100A8000194D5543056002E0174D056000BF00BFDA
:100A9000144D6D6805F0F0010909154D6B5C056892
:100AA000DD4045600F4D6D6805F4E061090A104DA9
:100AB0006B5C4568DD4085600A4D6D6805F46051EA
:100AC000C90A0B4D6B5C4568DD40C560054D6D681E
:100AD00005F44041890B074D6B5CC568B5FBF3F528
:100AE000056130BD0010024000127A0000093D008F
:100AF000590000206900002008B501210420FFF7FB
:100B000081FF18208DF8030003208DF802000120DA
:100B1000ADF8000069460948FFF755FC0220ADF822
:100B2000000069460548FFF74EFC0420ADF80000C0
:100B300069460248FFF747FC08BD00000008014075
:100B400000EB40010C4A32F811104FF080429186C0
:100B500000EB4001084A02EB410149884FF0804216
:100B6000118700EB4001044A02EB410189884FF0F4
:100B700080429187704700001C00002010B5FFF7ED
:100B8000BBFF00F008F84FF4FA70010788864000B8
:100B90000887888710BDF0B587B04FF47A74254672
:100BA0002646274601210846FFF71CFF601EADF8C8
:100BB00014004720ADF810000020ADF81600ADF885
:100BC000120004A9E00600F0DDFA6020ADF8000094
:100BD0000120ADF80200ADF806400020ADF8080095
:100BE0006946E00600F0BEF90821C80600F006FAE2
:100BF0000120ADF80200ADF806506946800700F00C
:100C000007FA0821C80600F055FA0120ADF80200E5
:100C1000ADF806606946800700F05AFA0821C80658
:100C200000F0A6FA0121880700F066F90121880783
:100C300000F071F907B0F0BD08B501211020FFF7F1
:100C4000E1FE03208DF8020010208DF80300000162
:100C5000ADF8000069460348FFF7B5FB00F01AF84D
:100C600008BD00000010014010B50220FFF768FF2A
:100C70004FF480700149086110BD00000010014070
:100C800070B504460D46FFF7EFFF2946204601F0F8
:100C90001DF870BD10B54FF4807003494861012004
:100CA000FFF74EFF10BD00000010014010B500F02E
:100CB00001F810BD0CB50020019000903348006889
:100CC00040F480303149086000BF3048006800F4CB
:100CD000003000900198401C0190009818B90198CC
:100CE000B0F5A06FF1D12948006800F4003010B1D0
:100CF0000120009001E0002000900098012843D1DD
:100D00002348006840F01000214908600846006848
:100D100020F0030008600846006840F00200086008
:100D20001A484068194948600846406848600846C3
:100D3000406840F4806048600846406820F47C10B9
:100D400048600846406840F4E8104860084600687B
:100D500040F08070086000BF0C48006800F0007030
:100D60000028F9D00948406820F00300074948608E
:100D70000846406840F00200486000BF03484068F1
:100D800000F00C000828F9D10CBD00000010024052
:100D90000020024010B500F001F810BD10B5124857
:100DA000006840B110480068401E0F49086010B943
:100DB00001200E490870002408E004EB44010C4AAD
:100DC00002EB810000F028FE601CC4B2042CF4DBAE
:100DD00008480068401C0749086008460068401C35
:100DE00008B90020086010BD0400002008000020A1
:100DF000880600200000002010B51348006840F06D
:100E000001001149086008464068104908400E4931
:100E10004860084600680E4908400B4908600846CB
:100E2000006820F4802008600846406820F4FE0036
:100E300048604FF41F008860FFF738FF4FF00060F4
:100E40000449086010BD0000001002400000FFF8D7
:100E5000FFFFF6FE08ED00E010B50221214800F08A
:100E600066F858B102211F4800F052F80022022112
:100E70001C4800F06DF81C480068804704211948A0
:100E800000F055F858B10421164800F041F800224E
:100E90000421144800F05CF81448006880470821D9
:100EA000104800F044F858B108210E4800F030F81E
:100EB000002208210B4800F04BF80D4800688047DD
:100EC0001021084800F033F858B11021054800F00F
:100ED0001FF800221021034800F03AF80548006886
:100EE000804710BD000400400C00002010000020CE
:100EF000140000201800002021B1028842F0800276
:100F0000028004E002884FF67F731A400280704727
:100F1000CA430282704721B1028842F00102028076
:100F200004E002884FF6FE731A400280704730B525
:100F30000246002000230024158A05EA0103958952
:100F400005EA010413B10CB1012000E0002030BD1E
:100F50001AB183890B43838102E083898B438381A8
:100F60007047000070B5002400220023058C4FF666
:100F7000FE7635400584028C8388048B4FF68F758E
:100F80002C40B51E2C400D882C43751E2A400D891F
:100F90002A434D882A43144DA8420BD0134DA84232
:100FA00008D0134DA84205D0124DA84202D0124DD0
:100FB000A84213D14FF6F7752A404D892A434FF6C0
:100FC000FB752A408D882A434FF6FF652B404FF66C
:100FD000FF552B408D892B43CD892B438380048380
:100FE000CD888586028470BD002C0140003401400C
:100FF0000040014000440140004801400A460021F1
:10100000018B4FF6F77319401143018370470000BD
:1010100070B5002400220023058C4FF6EF76354092
:101020000584028C8388048B48F6FF752C404FF6AC
:10103000FF452C400D884FF6FF7606EA05252C4328
:101040004FF6DF752A400D8906EA05152A434D88BB
:1010500006EA05152A43154DA84202D0144DA842B0
:101060001DD14FF67F752A404D894FF6FF7606EA6F
:1010700005152A434FF6BF752A408D8806EA0515E7
:101080002A434FF6FF352B404FF2FF752B408D89D9
:1010900006EA85052B43CD8906EA85052B43838027
:1010A0000483CD880587028470BD0000002C0140B8
:1010B000003401400A460021018B4FF2FF731940B2
:1010C0004FF6FF7303EA02231943018370470000C0
:1010D00070B5002400220023058C4FF6FF663540D2
:1010E0000584028C8388848B4FF68F752C404FF6D5
:1010F000FC752C400D882C434FF6FF552A400D8976
:101100004FF6FF7606EA05252A434D8806EA0525AF
:101110002A43154DA84202D0144DA8421DD14FF2CA
:10112000FF752A404D894FF6FF7606EA05252A43CA
:101130004FF6FF352A408D8806EA05252A434EF6EC
:10114000FF752B404DF6FF752B408D8906EA05157E
:101150002B43CD8906EA05152B4383808483CD88F4
:101160008587028470BD0000002C014000340140DE
:101170000A460021818B4FF6F77319401143818392
:1011800070470000002202881D4B98420ED01D4B74
:1011900098420BD0B0F1804F08D01B4B984205D03D
:1011A0001A4B984202D01A4B984204D14FF68F73D3
:1011B0001A404B881A43174B984207D0164B984257
:1011C00004D04FF6FF431A40CB881A4302808B8825
:1011D00083850B8803850A4B98420BD0094B9842B4
:1011E00008D00E4B984205D00D4B984202D00D4BC3
:1011F000984201D10B7A0386012383827047000055
:10120000002C014000340140000400400008004070
:10121000000C00400010004000140040004001405D
:10122000004401400048014010B540F224412548E7
:1012300000F0B5F800282ED02348FFF783F80446C5
:10124000214622A000F070F90120234908701D48B2
:1012500000F060F921A000F067F90320FFF770FCAF
:10126000002407E01F48025D21461FA000F05CF942
:10127000601CC4B21448FFF765F8C0F57A70A0424C
:10128000F0DC1148FFF75EF8C0F57A70194981F873
:10129000FF0000F005FD40F226610A4800F07FF8EB
:1012A00078B140F22661074800F048F8002240F289
:1012B0002661044800F09DF80FA000F035F9FFF713
:1012C000E9FC10BD004C00403004024072656376BA
:1012D00020636E743A2564005800002069646C65D0
:1012E000000000008803002025643A253032582091
:1012F00000000000B806002073656E64206F6B006C
:1013000010B540F22551064800F049F838B10448BC
:1013100000F000F9C4B2214602A000F005F910BDAA
:101320000050004025630000704701F40072B2F5E0
:10133000007F00D100BFCA430280704710B5002271
:10134000002340F66A14A14200D100BF0A12012412
:101350009440A3B2DC43048010BD21B1828942F4E1
:101360000052828104E082894DF6FF731A40828127
:1013700070471AB1838A0B43838202E0838A8B43CE
:101380008382704702460020B1F5007F00D100BF84
:1013900013880B400BB1012000E00020704770B5AE
:1013A0000246002400230025002040F66A16B142C0
:1013B00000D100BFC1F3421501F01F03012606FA58
:1013C00003F3012D02D19689334006E0022D02D1AC
:1013D000168A334001E0968A33400C12012606FA41
:1013E00004F41688344013B10CB1012000E0002051
:1013F00070BDF0B50346002400260025002040F60D
:101400006A17B94200D100BF1846C1F3421401F077
:101410001F06012707FA06F5012C01D10C3004E064
:10142000022C01D1103000E014301AB107682F43AC
:10143000076002E00768AF430760F0BD2DE9F047A1
:1014400086B005460E460024A24600BFA1460027EE
:10145000B08900B100BF2F462C8A4CF6FF700440C3
:10146000F08804432C82AC894EF6F3100440B08817
:1014700031890843718908430443AC81AC8A4FF633
:10148000FF400440B0890443AC8201A8FFF7CAFAC8
:101490001F48874202D1DDF810A001E0DDF80CA062
:1014A000A88900F4004040B10AEBCA0000EB0A1022
:1014B00031684900B0FBF1F807E00AEBCA0000EB25
:1014C0000A1031688900B0FBF1F86420B8FBF0F035
:1014D00004012009642101FB1089A88900F400405F
:1014E00040B1322000EBC900B0FBF1F000F0070082
:1014F000044308E0322000EB09106421B0FBF1F056
:1015000000F00F0004432C8106B0BDE8F087000016
:101510000038014001468888C0F308007047C1F3D5
:1015200008028280704700000FB4054B10B503A974
:10153000044A029800F01AF810BC5DF814FB000091
:10154000491C00088400002002E008C8121F08C1DE
:10155000002AFAD170477047002001E001C1121F34
:10156000002AFBD1704780F3108870472DE9FF4FA8
:101570008DB00F460546002606E025280BD0DDE994
:101580000F1290476D1C761C28780028F5D111B0F9
:101590003046BDE8F08F0024A246A1460122EC4966
:1015A00000E0044315F8013F203B02FA03F0084233
:1015B000F7D128782A2810D06FF02F022878A0F1D0
:1015C0003001092914D80AEB8A0102EB410144F0E9
:1015D000020400EB010A6D1CF0E701CF5FEA000A8C
:1015E00003D544F40054CAF1000A44F002046D1C0F
:1015F00028782E2817D115F8010F44F004042A2862
:101600000ED06FF02F022878A0F1300109290AD8F6
:1016100009EB890102EB410100EB01096D1CF2E7C6
:1016200057F8049B6D1C28786C280FD006DC4C28DA
:1016300017D068280DD06A2814D104E0742810D07F
:101640007A280FD10DE044F400140AE044F4801429
:1016500001E044F440146978814202D104F5801419
:101660006D1C6D1C2A786E2A1FD00CDC632A31D0C9
:1016700004DC002A8BD0582A11D1A3E0642A68D058
:10168000692A0CD165E0732A2ED004DC6F2A73D04E
:10169000702A04D19BE0752A6FD0782A6ED010464C
:1016A000DDE90F129047761C50E1C4F30250022886
:1016B00006D0032809D0042801CF09D0066045E1EF
:1016C00001CFF117C0E9006140E101CF06803DE1A3
:1016D00006703BE117F8040B8DF8000000208DF830
:1016E0000100EB46012003E057F804BB4FF0FF3048
:1016F00061074FF0000102D40DE008F101018846B6
:1017000049450FDA8045F8DB1BF808100029F4D1B1
:1017100008E008F1010188468142FADB1BF8081055
:101720000029F6D1DDE90F23AAEB08008146214606
:1017300000F036F9304400EB080604E0DDE90F1252
:101740001BF8010B9047B8F10108F7D22146484633
:10175000F7E00A21C4F302534FF0000B0891022B6B
:1017600004D001CFC117032B09D00AE0FF1D27F0D9
:101770000707F7E8020108E032E01FE020E000B2CE
:10178000C117042B01D140B2C117031E71F1000330
:1017900007DA4FF0000CD0EB0C006CEB01012D23AD
:1017A00002E0230504D52B238DF82430012303E028
:1017B000E30701D02023F7E7984658E00A2110E01C
:1017C00010210EE010204FF0000B08900CE01021CB
:1017D0004FF0000B44F004044FF00809089103E0B7
:1017E00008214FF0000B0891C4F30253022B04D0E0
:1017F00001CF0021032B06D006E0FF1D27F00707CD
:10180000F7E8020103E080B2042B00D1C0B24FF030
:10181000000823072BD5702A07D0DDF820C08CF0F4
:10182000100C5CEA0B0C05D00EE040238DF8243040
:10183000012308E050EA010306D030238DF824305C
:101840008DF8252002239846DDF820C08CF0080C86
:101850005CEA0B0C0BD150EA010301D1630706D5FA
:1018600030238DF824304FF00108A9F10109582ADE
:1018700004D038A20B9208AA0A920BE03AA2F9E728
:101880005B46089AFEF770FC0B9B9B5C0A9A521E03
:101890000A92137050EA0102F2D10A98ADEB0000EF
:1018A00000F1200B600702D524F4803401E04FF0F2
:1018B0000109D94502DDA9EB0B0000E0002000EB97
:1018C0000B0141440890AAEB010AE00306D4DDE9CC
:1018D0000F232146504600F063F806444FF00009FC
:1018E00008E009A911F80900DDE90F12904709F194
:1018F0000109761CC145F4DBE0030CD5DDE90F23BB
:101900002146504600F04CF8064404E0DDE90F1291
:1019100030209047761C0899481E08900029F5DC75
:1019200008E00A980A990078491C0A91DDE90F122B
:101930009047761CBBF10001ABF1010BF1DC2146B5
:101940005046DDE90F2300F019F806446D1C1BE634
:101950000928010030313233343536373839616285
:101960006364656600000000303132333435363749
:101970003839414243444546000000002DE9F0411A
:10198000044600251E461746880404D405E039465F
:101990002020B0476D1C641EF9D52846BDE8F081B3
:1019A0002DE9F041044600251E469046C80301D5A6
:1019B000302700E02027880404D505E0414638465A
:1019C000B0476D1C641EF9D52846BDE8F0810000C3
:1019D00070B504460120FFF7C6FD074806680020E1
:1019E000FFF7C1FDA64201D3351B02E0C4F1FF3071
:1019F0008519284670BD00000000002010B50120A8
:101A0000FFF7B1FD034804680020FFF7ACFD204656
:101A100010BD000000000020416851B14168491E1E
:101A2000416031B9012141700178012901D18168FA
:101A30004160704710B500F0A1F8FFF79FF800F083
:101A400019F800F047F8FFF7F7F810234FF47A720F
:101A50000549064800F0C4F800234FF47A7204499F
:101A6000024800F091F810BD88020020044C0040AC
:101A7000B806002030B51448006842F21072B0FB7E
:101A8000F2F1481EB0F1807F00D31BE0481E4FF0FA
:101A9000E022506150170F22002804DB13071C0EB0
:101AA0000A4B1C5406E013071D0E094B00F00F04EF
:101AB000241F1D5500BF00204FF0E0229061072039
:101AC000106100BF30BD00007000002000E400E0A5
:101AD00018ED00E02DE9FF41002416E0002004EBA2
:101AE0004401224A02EB8101486004EB440102EB0D
:101AF0008101886004EB440102EB8101487004EB32
:101B0000440102F82100601CC4B2042CE6DB012170
:101B10000220FEF767FF1648006847081548B7FB24
:101B2000F0F086B24FF6FF75ADF80850ADF80460DE
:101B30000020ADF80A00ADF8060001A90E48FFF735
:101B400021FB01210C48FFF7E6F91D208DF800006C
:101B500004208DF8010000208DF8020001208DF88E
:101B600003006846FEF7F6FEBDE8FF818806002008
:101B70007000002040420F000004004010B5FEF746
:101B8000ADFCFEF771FB10BDF0B58BB007460C46FF
:101B900015461E4601210220FEF714FF009701940E
:101BA0000296039500200490802005900020069066
:101BB000079020200890C001099000200A906946F3
:101BC0000548FEF7E2FB01210348FEF7AFFB03489F
:101BD000FEF79EFB0BB0F0BD300402400001001088
:101BE000F0B58BB007460C4615461E460121022073
:101BF000FEF7E8FE009701940296039500200490FA
:101C00008020059000200690079008904FF48050A7
:101C1000099000200A9069460948FEF7B6FB0121A9
:101C20000748FEF783FB012202210548FEF7A4FBCB
:101C30000448FEF76DFBFEF75BFB0BB0F0BD000048
:101C4000580402400000011070B504460D46E1B290
:101C50000548FFF764FC00BF40210348FFF792FBF3
:101C60000028F9D0204670BD00380140FFF7E2FEA1
:101C700008A0FFF759FC0020FEF762FF01220021B7
:101C80001046FEF755FD10B104A0FFF74DFC00BF54
:101C9000FEE70000696E69740A0000006F6B0000C7
:101CA00010B500210748FEF741FB0748FEF730FB5F
:101CB0004FF47A700349091D086001210148FEF7BD
:101CC00035FB10BD300402400001001070B5054620
:101CD0000C461148FEF71CFB40F226610F48FFF747
:101CE0002DFB00210E48FEF721FB0D480C3005604E
:101CF0000B48001D0460012240F226610748FFF7EF
:101D000078FB01210648FEF711FB012280210348E0
:101D1000FFF72FFB70BD000000000210004C0040D8
:101D20005804024000C1814001C0804101C080418F
:101D300000C1814001C0804100C1814000C181409B
:101D400001C0804101C0804100C1814000C181408B
:101D500001C0804100C1814001C0804101C080417B
:101D600000C1814001C0804100C1814000C181406B
:101D700001C0804100C1814001C0804101C080415B
:101D800000C1814000C1814001C0804101C080414B
:101D900000C1814001C0804100C1814000C181403B
:101DA00001C0804101C0804100C1814000C181402B
:101DB00001C0804100C1814001C0804101C080411B
:101DC00000C1814000C1814001C0804101C080410B
:101DD00000C1814001C0804100C1814000C18140FB
:101DE00001C0804100C1814001C0804101C08041EB
:101DF00000C1814001C0804100C1814000C18140DB
:101E000001C0804101C0804100C1814000C18140CA
:101E100001C0804100C1814001C0804101C08041BA
:101E200000C1814000C0C101C30302C2C60607C78A
:101E300005C5C404CC0C0DCD0FCFCE0E0ACACB0BFA
:101E4000C90908C8D81819D91BDBDA1A1EDEDF1F2A
:101E5000DD1D1CDC14D4D515D71716D6D21213D31A
:101E600011D1D010F03031F133F3F23236F6F737CA
:101E7000F53534F43CFCFD3DFF3F3EFEFA3A3BFBBA
:101E800039F9F83828E8E929EB2B2AEAEE2E2FEF6A
:101E90002DEDEC2CE42425E527E7E62622E2E323DA
:101EA000E12120E0A06061A163A3A26266A6A7670A
:101EB000A56564A46CACAD6DAF6F6EAEAA6A6BAB7A
:101EC00069A9A86878B8B979BB7B7ABABE7E7FBFAA
:101ED0007DBDBC7CB47475B577B7B67672B2B3739A
:101EE000B17170B05090915193535292965657974A
:101EF000559594549C5C5D9D5F9F9E5E5A9A9B5B3A
:101F000099595898884849894B8B8A4A4E8E8F4FE9
:101F10008D4D4C8C44848545874746868242438359
:101F200041818040441F000800000020880000001C
:101F300048150008CC1F000888000020A00C0000F5
:101F4000581500080000000000000000000000001C
:101F50000000000000000000000000000000000081
:101F60000000E803E803E8030000E803E803E803EF
:101F7000000000002602E80300000000000000004E
:101F80000000000000000000000000000000000051
:101F90000000000000000000000000000000000041
:101FA00000010203040102030406070809020406F3
:101FB0000800000000A24A04000000000000000029
:0C1FC000010203040607080900000000ED
:0400000508000131BD
:00000001FF
